{
    "_format": "hh-sol-artifact-1",
    "contractName": "nftMint",
    "sourceName": "contracts/nftMint.sol",
    "abi": [
        {
            "inputs": [
                {
                    "internalType": "string",
                    "name": "baseURI",
                    "type": "string"
                }
            ],
            "stateMutability": "nonpayable",
            "type": "constructor"
        },
        {
            "anonymous": false,
            "inputs": [
                {
                    "indexed": true,
                    "internalType": "address",
                    "name": "owner",
                    "type": "address"
                },
                {
                    "indexed": true,
                    "internalType": "address",
                    "name": "approved",
                    "type": "address"
                },
                {
                    "indexed": true,
                    "internalType": "uint256",
                    "name": "tokenId",
                    "type": "uint256"
                }
            ],
            "name": "Approval",
            "type": "event"
        },
        {
            "anonymous": false,
            "inputs": [
                {
                    "indexed": true,
                    "internalType": "address",
                    "name": "owner",
                    "type": "address"
                },
                {
                    "indexed": true,
                    "internalType": "address",
                    "name": "operator",
                    "type": "address"
                },
                {
                    "indexed": false,
                    "internalType": "bool",
                    "name": "approved",
                    "type": "bool"
                }
            ],
            "name": "ApprovalForAll",
            "type": "event"
        },
        {
            "anonymous": false,
            "inputs": [
                {
                    "indexed": true,
                    "internalType": "address",
                    "name": "previousOwner",
                    "type": "address"
                },
                {
                    "indexed": true,
                    "internalType": "address",
                    "name": "newOwner",
                    "type": "address"
                }
            ],
            "name": "OwnershipTransferred",
            "type": "event"
        },
        {
            "anonymous": false,
            "inputs": [
                {
                    "indexed": true,
                    "internalType": "address",
                    "name": "from",
                    "type": "address"
                },
                {
                    "indexed": true,
                    "internalType": "address",
                    "name": "to",
                    "type": "address"
                },
                {
                    "indexed": true,
                    "internalType": "uint256",
                    "name": "tokenId",
                    "type": "uint256"
                }
            ],
            "name": "Transfer",
            "type": "event"
        },
        {
            "inputs": [
                {
                    "internalType": "address",
                    "name": "to",
                    "type": "address"
                },
                {
                    "internalType": "uint256",
                    "name": "tokenId",
                    "type": "uint256"
                }
            ],
            "name": "approve",
            "outputs": [],
            "stateMutability": "nonpayable",
            "type": "function"
        },
        {
            "inputs": [
                {
                    "internalType": "address",
                    "name": "owner",
                    "type": "address"
                }
            ],
            "name": "balanceOf",
            "outputs": [
                {
                    "internalType": "uint256",
                    "name": "",
                    "type": "uint256"
                }
            ],
            "stateMutability": "view",
            "type": "function"
        },
        {
            "inputs": [],
            "name": "baseExtension",
            "outputs": [
                {
                    "internalType": "string",
                    "name": "",
                    "type": "string"
                }
            ],
            "stateMutability": "view",
            "type": "function"
        },
        {
            "inputs": [],
            "name": "baseTokenURI",
            "outputs": [
                {
                    "internalType": "string",
                    "name": "",
                    "type": "string"
                }
            ],
            "stateMutability": "view",
            "type": "function"
        },
        {
            "inputs": [],
            "name": "cost",
            "outputs": [
                {
                    "internalType": "uint256",
                    "name": "",
                    "type": "uint256"
                }
            ],
            "stateMutability": "view",
            "type": "function"
        },
        {
            "inputs": [],
            "name": "flipSaleState",
            "outputs": [],
            "stateMutability": "nonpayable",
            "type": "function"
        },
        {
            "inputs": [
                {
                    "internalType": "uint256",
                    "name": "tokenId",
                    "type": "uint256"
                }
            ],
            "name": "getApproved",
            "outputs": [
                {
                    "internalType": "address",
                    "name": "",
                    "type": "address"
                }
            ],
            "stateMutability": "view",
            "type": "function"
        },
        {
            "inputs": [
                {
                    "internalType": "address",
                    "name": "owner",
                    "type": "address"
                },
                {
                    "internalType": "address",
                    "name": "operator",
                    "type": "address"
                }
            ],
            "name": "isApprovedForAll",
            "outputs": [
                {
                    "internalType": "bool",
                    "name": "",
                    "type": "bool"
                }
            ],
            "stateMutability": "view",
            "type": "function"
        },
        {
            "inputs": [],
            "name": "isSaleActive",
            "outputs": [
                {
                    "internalType": "bool",
                    "name": "",
                    "type": "bool"
                }
            ],
            "stateMutability": "view",
            "type": "function"
        },
        {
            "inputs": [],
            "name": "maxPerMint",
            "outputs": [
                {
                    "internalType": "uint256",
                    "name": "",
                    "type": "uint256"
                }
            ],
            "stateMutability": "view",
            "type": "function"
        },
        {
            "inputs": [],
            "name": "maxSupply",
            "outputs": [
                {
                    "internalType": "uint256",
                    "name": "",
                    "type": "uint256"
                }
            ],
            "stateMutability": "view",
            "type": "function"
        },
        {
            "inputs": [
                {
                    "internalType": "uint256",
                    "name": "_count",
                    "type": "uint256"
                }
            ],
            "name": "mintNFTs",
            "outputs": [],
            "stateMutability": "payable",
            "type": "function"
        },
        {
            "inputs": [],
            "name": "name",
            "outputs": [
                {
                    "internalType": "string",
                    "name": "",
                    "type": "string"
                }
            ],
            "stateMutability": "view",
            "type": "function"
        },
        {
            "inputs": [],
            "name": "owner",
            "outputs": [
                {
                    "internalType": "address",
                    "name": "",
                    "type": "address"
                }
            ],
            "stateMutability": "view",
            "type": "function"
        },
        {
            "inputs": [
                {
                    "internalType": "uint256",
                    "name": "tokenId",
                    "type": "uint256"
                }
            ],
            "name": "ownerOf",
            "outputs": [
                {
                    "internalType": "address",
                    "name": "",
                    "type": "address"
                }
            ],
            "stateMutability": "view",
            "type": "function"
        },
        {
            "inputs": [
                {
                    "internalType": "address",
                    "name": "_user",
                    "type": "address"
                }
            ],
            "name": "removeWhitelistUser",
            "outputs": [],
            "stateMutability": "nonpayable",
            "type": "function"
        },
        {
            "inputs": [],
            "name": "renounceOwnership",
            "outputs": [],
            "stateMutability": "nonpayable",
            "type": "function"
        },
        {
            "inputs": [
                {
                    "internalType": "address",
                    "name": "from",
                    "type": "address"
                },
                {
                    "internalType": "address",
                    "name": "to",
                    "type": "address"
                },
                {
                    "internalType": "uint256",
                    "name": "tokenId",
                    "type": "uint256"
                }
            ],
            "name": "safeTransferFrom",
            "outputs": [],
            "stateMutability": "nonpayable",
            "type": "function"
        },
        {
            "inputs": [
                {
                    "internalType": "address",
                    "name": "from",
                    "type": "address"
                },
                {
                    "internalType": "address",
                    "name": "to",
                    "type": "address"
                },
                {
                    "internalType": "uint256",
                    "name": "tokenId",
                    "type": "uint256"
                },
                {
                    "internalType": "bytes",
                    "name": "data",
                    "type": "bytes"
                }
            ],
            "name": "safeTransferFrom",
            "outputs": [],
            "stateMutability": "nonpayable",
            "type": "function"
        },
        {
            "inputs": [
                {
                    "internalType": "address",
                    "name": "operator",
                    "type": "address"
                },
                {
                    "internalType": "bool",
                    "name": "approved",
                    "type": "bool"
                }
            ],
            "name": "setApprovalForAll",
            "outputs": [],
            "stateMutability": "nonpayable",
            "type": "function"
        },
        {
            "inputs": [
                {
                    "internalType": "string",
                    "name": "_newBaseExtension",
                    "type": "string"
                }
            ],
            "name": "setBaseExtension",
            "outputs": [],
            "stateMutability": "nonpayable",
            "type": "function"
        },
        {
            "inputs": [
                {
                    "internalType": "string",
                    "name": "_baseTokenURI",
                    "type": "string"
                }
            ],
            "name": "setBaseURI",
            "outputs": [],
            "stateMutability": "nonpayable",
            "type": "function"
        },
        {
            "inputs": [
                {
                    "internalType": "uint256",
                    "name": "_newCost",
                    "type": "uint256"
                }
            ],
            "name": "setCost",
            "outputs": [],
            "stateMutability": "nonpayable",
            "type": "function"
        },
        {
            "inputs": [
                {
                    "internalType": "uint256",
                    "name": "_newmaxPerMint",
                    "type": "uint256"
                }
            ],
            "name": "setmaxMintAmount",
            "outputs": [],
            "stateMutability": "nonpayable",
            "type": "function"
        },
        {
            "inputs": [
                {
                    "internalType": "bytes4",
                    "name": "interfaceId",
                    "type": "bytes4"
                }
            ],
            "name": "supportsInterface",
            "outputs": [
                {
                    "internalType": "bool",
                    "name": "",
                    "type": "bool"
                }
            ],
            "stateMutability": "view",
            "type": "function"
        },
        {
            "inputs": [],
            "name": "symbol",
            "outputs": [
                {
                    "internalType": "string",
                    "name": "",
                    "type": "string"
                }
            ],
            "stateMutability": "view",
            "type": "function"
        },
        {
            "inputs": [
                {
                    "internalType": "uint256",
                    "name": "index",
                    "type": "uint256"
                }
            ],
            "name": "tokenByIndex",
            "outputs": [
                {
                    "internalType": "uint256",
                    "name": "",
                    "type": "uint256"
                }
            ],
            "stateMutability": "view",
            "type": "function"
        },
        {
            "inputs": [
                {
                    "internalType": "address",
                    "name": "owner",
                    "type": "address"
                },
                {
                    "internalType": "uint256",
                    "name": "index",
                    "type": "uint256"
                }
            ],
            "name": "tokenOfOwnerByIndex",
            "outputs": [
                {
                    "internalType": "uint256",
                    "name": "",
                    "type": "uint256"
                }
            ],
            "stateMutability": "view",
            "type": "function"
        },
        {
            "inputs": [
                {
                    "internalType": "uint256",
                    "name": "tokenId",
                    "type": "uint256"
                }
            ],
            "name": "tokenURI",
            "outputs": [
                {
                    "internalType": "string",
                    "name": "",
                    "type": "string"
                }
            ],
            "stateMutability": "view",
            "type": "function"
        },
        {
            "inputs": [],
            "name": "totalSupply",
            "outputs": [
                {
                    "internalType": "uint256",
                    "name": "",
                    "type": "uint256"
                }
            ],
            "stateMutability": "view",
            "type": "function"
        },
        {
            "inputs": [
                {
                    "internalType": "address",
                    "name": "from",
                    "type": "address"
                },
                {
                    "internalType": "address",
                    "name": "to",
                    "type": "address"
                },
                {
                    "internalType": "uint256",
                    "name": "tokenId",
                    "type": "uint256"
                }
            ],
            "name": "transferFrom",
            "outputs": [],
            "stateMutability": "nonpayable",
            "type": "function"
        },
        {
            "inputs": [
                {
                    "internalType": "address",
                    "name": "newOwner",
                    "type": "address"
                }
            ],
            "name": "transferOwnership",
            "outputs": [],
            "stateMutability": "nonpayable",
            "type": "function"
        },
        {
            "inputs": [
                {
                    "internalType": "address",
                    "name": "_owner",
                    "type": "address"
                }
            ],
            "name": "walletOfOwner",
            "outputs": [
                {
                    "internalType": "uint256[]",
                    "name": "",
                    "type": "uint256[]"
                }
            ],
            "stateMutability": "view",
            "type": "function"
        },
        {
            "inputs": [
                {
                    "internalType": "address",
                    "name": "_user",
                    "type": "address"
                }
            ],
            "name": "whitelistUser",
            "outputs": [],
            "stateMutability": "nonpayable",
            "type": "function"
        },
        {
            "inputs": [
                {
                    "internalType": "address",
                    "name": "",
                    "type": "address"
                }
            ],
            "name": "whitelisted",
            "outputs": [
                {
                    "internalType": "bool",
                    "name": "",
                    "type": "bool"
                }
            ],
            "stateMutability": "view",
            "type": "function"
        },
        {
            "inputs": [],
            "name": "withdraw",
            "outputs": [],
            "stateMutability": "payable",
            "type": "function"
        }
    ],
    "bytecode": "0x60806040526040518060400160405280600581526020017f2e6a736f6e000000000000000000000000000000000000000000000000000000815250600e90805190602001906200005192919062000322565b50662386f26fc10000600f5560056010553480156200006f57600080fd5b5060405162004bce38038062004bce833981810160405281019062000095919062000444565b6040518060400160405280600381526020017f41524100000000000000000000000000000000000000000000000000000000008152506040518060400160405280600581526020017f4e4f524d4100000000000000000000000000000000000000000000000000000081525081600090805190602001906200011992919062000322565b5080600190805190602001906200013292919062000322565b50505062000155620001496200016d60201b60201c565b6200017560201b60201c565b62000166816200023b60201b60201c565b506200067c565b600033905090565b6000600660009054906101000a900473ffffffffffffffffffffffffffffffffffffffff16905081600660006101000a81548173ffffffffffffffffffffffffffffffffffffffff021916908373ffffffffffffffffffffffffffffffffffffffff1602179055508173ffffffffffffffffffffffffffffffffffffffff168173ffffffffffffffffffffffffffffffffffffffff167f8be0079c531659141344cd1fd0a4f28419497f9722a3daafe3b4186f6b6457e060405160405180910390a35050565b6200024b6200026760201b60201c565b80600d90805190602001906200026392919062000322565b5050565b620002776200016d60201b60201c565b73ffffffffffffffffffffffffffffffffffffffff166200029d620002f860201b60201c565b73ffffffffffffffffffffffffffffffffffffffff1614620002f6576040517f08c379a0000000000000000000000000000000000000000000000000000000008152600401620002ed90620004b0565b60405180910390fd5b565b6000600660009054906101000a900473ffffffffffffffffffffffffffffffffffffffff16905090565b828054620003309062000578565b90600052602060002090601f016020900481019282620003545760008555620003a0565b82601f106200036f57805160ff1916838001178555620003a0565b82800160010185558215620003a0579182015b828111156200039f57825182559160200191906001019062000382565b5b509050620003af9190620003b3565b5090565b5b80821115620003ce576000816000905550600101620003b4565b5090565b6000620003e9620003e384620004fb565b620004d2565b9050828152602081018484840111156200040257600080fd5b6200040f84828562000542565b509392505050565b600082601f8301126200042957600080fd5b81516200043b848260208601620003d2565b91505092915050565b6000602082840312156200045757600080fd5b600082015167ffffffffffffffff8111156200047257600080fd5b620004808482850162000417565b91505092915050565b60006200049860208362000531565b9150620004a58262000653565b602082019050919050565b60006020820190508181036000830152620004cb8162000489565b9050919050565b6000620004de620004f1565b9050620004ec8282620005ae565b919050565b6000604051905090565b600067ffffffffffffffff82111562000519576200051862000613565b5b620005248262000642565b9050602081019050919050565b600082825260208201905092915050565b60005b838110156200056257808201518184015260208101905062000545565b8381111562000572576000848401525b50505050565b600060028204905060018216806200059157607f821691505b60208210811415620005a857620005a7620005e4565b5b50919050565b620005b98262000642565b810181811067ffffffffffffffff82111715620005db57620005da62000613565b5b80604052505050565b7f4e487b7100000000000000000000000000000000000000000000000000000000600052602260045260246000fd5b7f4e487b7100000000000000000000000000000000000000000000000000000000600052604160045260246000fd5b6000601f19601f8301169050919050565b7f4f776e61626c653a2063616c6c6572206973206e6f7420746865206f776e6572600082015250565b614542806200068c6000396000f3fe60806040526004361061020f5760003560e01c806355f804b311610118578063b88d4fde116100a0578063d5abeb011161006f578063d5abeb011461076d578063d936547e14610798578063da3ef23f146107d5578063e985e9c5146107fe578063f2fde38b1461083b5761020f565b8063b88d4fde146106b1578063c6682862146106da578063c87b56dd14610705578063d547cfb7146107425761020f565b8063715018a6116100e7578063715018a6146105f25780637f00c7a6146106095780638da5cb5b1461063257806395d89b411461065d578063a22cb465146106885761020f565b806355f804b314610524578063564566a81461054d5780636352211e1461057857806370a08231146105b55761020f565b806334918dfd1161019b578063438b63001161016a578063438b63001461042d57806344a0d68a1461046a5780634a4c560d146104935780634f6ccce7146104bc578063507e094f146104f95761020f565b806334918dfd146103c75780633b4b1381146103de5780633ccfd60b146103fa57806342842e0e146104045761020f565b806313faede6116101e257806313faede6146102e257806318160ddd1461030d57806323b872dd146103385780632f745c591461036157806330cc7ae01461039e5761020f565b806301ffc9a71461021457806306fdde0314610251578063081812fc1461027c578063095ea7b3146102b9575b600080fd5b34801561022057600080fd5b5061023b6004803603810190610236919061328e565b610864565b6040516102489190613894565b60405180910390f35b34801561025d57600080fd5b50610266610876565b60405161027391906138af565b60405180910390f35b34801561028857600080fd5b506102a3600480360381019061029e9190613321565b610908565b6040516102b0919061380b565b60405180910390f35b3480156102c557600080fd5b506102e060048036038101906102db9190613252565b61094e565b005b3480156102ee57600080fd5b506102f7610a66565b6040516103049190613b51565b60405180910390f35b34801561031957600080fd5b50610322610a6c565b60405161032f9190613b51565b60405180910390f35b34801561034457600080fd5b5061035f600480360381019061035a919061314c565b610a79565b005b34801561036d57600080fd5b5061038860048036038101906103839190613252565b610ad9565b6040516103959190613b51565b60405180910390f35b3480156103aa57600080fd5b506103c560048036038101906103c091906130e7565b610b7e565b005b3480156103d357600080fd5b506103dc610be1565b005b6103f860048036038101906103f39190613321565b610c15565b005b610402610e14565b005b34801561041057600080fd5b5061042b6004803603810190610426919061314c565b610e5c565b005b34801561043957600080fd5b50610454600480360381019061044f91906130e7565b610e7c565b6040516104619190613872565b60405180910390f35b34801561047657600080fd5b50610491600480360381019061048c9190613321565b610f76565b005b34801561049f57600080fd5b506104ba60048036038101906104b591906130e7565b610f88565b005b3480156104c857600080fd5b506104e360048036038101906104de9190613321565b610feb565b6040516104f09190613b51565b60405180910390f35b34801561050557600080fd5b5061050e611082565b60405161051b9190613b51565b60405180910390f35b34801561053057600080fd5b5061054b600480360381019061054691906132e0565b611088565b005b34801561055957600080fd5b506105626110aa565b60405161056f9190613894565b60405180910390f35b34801561058457600080fd5b5061059f600480360381019061059a9190613321565b6110bd565b6040516105ac919061380b565b60405180910390f35b3480156105c157600080fd5b506105dc60048036038101906105d791906130e7565b611144565b6040516105e99190613b51565b60405180910390f35b3480156105fe57600080fd5b506106076111fc565b005b34801561061557600080fd5b50610630600480360381019061062b9190613321565b611210565b005b34801561063e57600080fd5b50610647611222565b604051610654919061380b565b60405180910390f35b34801561066957600080fd5b5061067261124c565b60405161067f91906138af565b60405180910390f35b34801561069457600080fd5b506106af60048036038101906106aa9190613216565b6112de565b005b3480156106bd57600080fd5b506106d860048036038101906106d3919061319b565b6112f4565b005b3480156106e657600080fd5b506106ef611356565b6040516106fc91906138af565b60405180910390f35b34801561071157600080fd5b5061072c60048036038101906107279190613321565b6113e4565b60405161073991906138af565b60405180910390f35b34801561074e57600080fd5b5061075761148e565b60405161076491906138af565b60405180910390f35b34801561077957600080fd5b5061078261151c565b60405161078f9190613b51565b60405180910390f35b3480156107a457600080fd5b506107bf60048036038101906107ba91906130e7565b611521565b6040516107cc9190613894565b60405180910390f35b3480156107e157600080fd5b506107fc60048036038101906107f791906132e0565b611541565b005b34801561080a57600080fd5b5061082560048036038101906108209190613110565b611563565b6040516108329190613894565b60405180910390f35b34801561084757600080fd5b50610862600480360381019061085d91906130e7565b6115f7565b005b600061086f8261167b565b9050919050565b60606000805461088590613e1e565b80601f01602080910402602001604051908101604052809291908181526020018280546108b190613e1e565b80156108fe5780601f106108d3576101008083540402835291602001916108fe565b820191906000526020600020905b8154815290600101906020018083116108e157829003601f168201915b5050505050905090565b6000610913826116f5565b6004600083815260200190815260200160002060009054906101000a900473ffffffffffffffffffffffffffffffffffffffff169050919050565b6000610959826110bd565b90508073ffffffffffffffffffffffffffffffffffffffff168373ffffffffffffffffffffffffffffffffffffffff1614156109ca576040517f08c379a00000000000000000000000000000000000000000000000000000000081526004016109c190613ad1565b60405180910390fd5b8073ffffffffffffffffffffffffffffffffffffffff166109e9611740565b73ffffffffffffffffffffffffffffffffffffffff161480610a185750610a1781610a12611740565b611563565b5b610a57576040517f08c379a0000000000000000000000000000000000000000000000000000000008152600401610a4e90613af1565b60405180910390fd5b610a618383611748565b505050565b600f5481565b6000600980549050905090565b610a8a610a84611740565b82611801565b610ac9576040517f08c379a0000000000000000000000000000000000000000000000000000000008152600401610ac0906138d1565b60405180910390fd5b610ad4838383611896565b505050565b6000610ae483611144565b8210610b25576040517f08c379a0000000000000000000000000000000000000000000000000000000008152600401610b1c906138f1565b60405180910390fd5b600760008473ffffffffffffffffffffffffffffffffffffffff1673ffffffffffffffffffffffffffffffffffffffff168152602001908152602001600020600083815260200190815260200160002054905092915050565b610b86611b90565b6000601260008373ffffffffffffffffffffffffffffffffffffffff1673ffffffffffffffffffffffffffffffffffffffff16815260200190815260200160002060006101000a81548160ff02191690831515021790555050565b610be9611b90565b601160009054906101000a900460ff1615601160006101000a81548160ff021916908315150217905550565b6000610c21600c611c0e565b90506064610c388383611c1c90919063ffffffff16565b1115610c79576040517f08c379a0000000000000000000000000000000000000000000000000000000008152600401610c70906139f1565b60405180910390fd5b600082118015610c8b57506010548211155b610cca576040517f08c379a0000000000000000000000000000000000000000000000000000000008152600401610cc190613a11565b60405180910390fd5b610cdf82600f54611c3290919063ffffffff16565b341015610d21576040517f08c379a0000000000000000000000000000000000000000000000000000000008152600401610d18906139d1565b60405180910390fd5b610d29611222565b73ffffffffffffffffffffffffffffffffffffffff163373ffffffffffffffffffffffffffffffffffffffff1614610dcf5760011515601260003373ffffffffffffffffffffffffffffffffffffffff1673ffffffffffffffffffffffffffffffffffffffff16815260200190815260200160002060009054906101000a900460ff16151514610dce5781600f54610dc19190613cda565b341015610dcd57600080fd5b5b5b60005b828111610e0f576000610de5600c611c0e565b9050610df13382611c48565b610dfb600c611c66565b508080610e0790613e81565b915050610dd2565b505050565b610e1c611b90565b3373ffffffffffffffffffffffffffffffffffffffff166108fc479081150290604051600060405180830381858888f19350505050610e5a57600080fd5b565b610e77838383604051806020016040528060008152506112f4565b505050565b60606000610e8983611144565b905060008167ffffffffffffffff811115610ecd577f4e487b7100000000000000000000000000000000000000000000000000000000600052604160045260246000fd5b604051908082528060200260200182016040528015610efb5781602001602082028036833780820191505090505b50905060005b82811015610f6b57610f138582610ad9565b828281518110610f4c577f4e487b7100000000000000000000000000000000000000000000000000000000600052603260045260246000fd5b6020026020010181815250508080610f6390613e81565b915050610f01565b508092505050919050565b610f7e611b90565b80600f8190555050565b610f90611b90565b6001601260008373ffffffffffffffffffffffffffffffffffffffff1673ffffffffffffffffffffffffffffffffffffffff16815260200190815260200160002060006101000a81548160ff02191690831515021790555050565b6000610ff5610a6c565b8210611036576040517f08c379a000000000000000000000000000000000000000000000000000000000815260040161102d90613b11565b60405180910390fd5b60098281548110611070577f4e487b7100000000000000000000000000000000000000000000000000000000600052603260045260246000fd5b90600052602060002001549050919050565b60105481565b611090611b90565b80600d90805190602001906110a6929190612f0b565b5050565b601160009054906101000a900460ff1681565b6000806110c983611c7c565b9050600073ffffffffffffffffffffffffffffffffffffffff168173ffffffffffffffffffffffffffffffffffffffff16141561113b576040517f08c379a000000000000000000000000000000000000000000000000000000000815260040161113290613ab1565b60405180910390fd5b80915050919050565b60008073ffffffffffffffffffffffffffffffffffffffff168273ffffffffffffffffffffffffffffffffffffffff1614156111b5576040517f08c379a00000000000000000000000000000000000000000000000000000000081526004016111ac90613a31565b60405180910390fd5b600360008373ffffffffffffffffffffffffffffffffffffffff1673ffffffffffffffffffffffffffffffffffffffff168152602001908152602001600020549050919050565b611204611b90565b61120e6000611cb9565b565b611218611b90565b8060108190555050565b6000600660009054906101000a900473ffffffffffffffffffffffffffffffffffffffff16905090565b60606001805461125b90613e1e565b80601f016020809104026020016040519081016040528092919081815260200182805461128790613e1e565b80156112d45780601f106112a9576101008083540402835291602001916112d4565b820191906000526020600020905b8154815290600101906020018083116112b757829003601f168201915b5050505050905090565b6112f06112e9611740565b8383611d7f565b5050565b6113056112ff611740565b83611801565b611344576040517f08c379a000000000000000000000000000000000000000000000000000000000815260040161133b906138d1565b60405180910390fd5b61135084848484611eec565b50505050565b600e805461136390613e1e565b80601f016020809104026020016040519081016040528092919081815260200182805461138f90613e1e565b80156113dc5780601f106113b1576101008083540402835291602001916113dc565b820191906000526020600020905b8154815290600101906020018083116113bf57829003601f168201915b505050505081565b60606113ef82611f48565b61142e576040517f08c379a000000000000000000000000000000000000000000000000000000000815260040161142590613a91565b60405180910390fd5b6000611438611f89565b905060008151116114585760405180602001604052806000815250611486565b806114628461201b565b600e604051602001611476939291906137da565b6040516020818303038152906040525b915050919050565b600d805461149b90613e1e565b80601f01602080910402602001604051908101604052809291908181526020018280546114c790613e1e565b80156115145780601f106114e957610100808354040283529160200191611514565b820191906000526020600020905b8154815290600101906020018083116114f757829003601f168201915b505050505081565b606481565b60126020528060005260406000206000915054906101000a900460ff1681565b611549611b90565b80600e908051906020019061155f929190612f0b565b5050565b6000600560008473ffffffffffffffffffffffffffffffffffffffff1673ffffffffffffffffffffffffffffffffffffffff16815260200190815260200160002060008373ffffffffffffffffffffffffffffffffffffffff1673ffffffffffffffffffffffffffffffffffffffff16815260200190815260200160002060009054906101000a900460ff16905092915050565b6115ff611b90565b600073ffffffffffffffffffffffffffffffffffffffff168173ffffffffffffffffffffffffffffffffffffffff16141561166f576040517f08c379a000000000000000000000000000000000000000000000000000000000815260040161166690613931565b60405180910390fd5b61167881611cb9565b50565b60007f780e9d63000000000000000000000000000000000000000000000000000000007bffffffffffffffffffffffffffffffffffffffffffffffffffffffff1916827bffffffffffffffffffffffffffffffffffffffffffffffffffffffff191614806116ee57506116ed8261213f565b5b9050919050565b6116fe81611f48565b61173d576040517f08c379a000000000000000000000000000000000000000000000000000000000815260040161173490613ab1565b60405180910390fd5b50565b600033905090565b816004600083815260200190815260200160002060006101000a81548173ffffffffffffffffffffffffffffffffffffffff021916908373ffffffffffffffffffffffffffffffffffffffff160217905550808273ffffffffffffffffffffffffffffffffffffffff166117bb836110bd565b73ffffffffffffffffffffffffffffffffffffffff167f8c5be1e5ebec7d5bd14f71427d1e84f3dd0314c0f7b2291e5b200ac8c7c3b92560405160405180910390a45050565b60008061180d836110bd565b90508073ffffffffffffffffffffffffffffffffffffffff168473ffffffffffffffffffffffffffffffffffffffff16148061184f575061184e8185611563565b5b8061188d57508373ffffffffffffffffffffffffffffffffffffffff1661187584610908565b73ffffffffffffffffffffffffffffffffffffffff16145b91505092915050565b8273ffffffffffffffffffffffffffffffffffffffff166118b6826110bd565b73ffffffffffffffffffffffffffffffffffffffff161461190c576040517f08c379a000000000000000000000000000000000000000000000000000000000815260040161190390613951565b60405180910390fd5b600073ffffffffffffffffffffffffffffffffffffffff168273ffffffffffffffffffffffffffffffffffffffff16141561197c576040517f08c379a000000000000000000000000000000000000000000000000000000000815260040161197390613991565b60405180910390fd5b6119898383836001612221565b8273ffffffffffffffffffffffffffffffffffffffff166119a9826110bd565b73ffffffffffffffffffffffffffffffffffffffff16146119ff576040517f08c379a00000000000000000000000000000000000000000000000000000000081526004016119f690613951565b60405180910390fd5b6004600082815260200190815260200160002060006101000a81549073ffffffffffffffffffffffffffffffffffffffff02191690556001600360008573ffffffffffffffffffffffffffffffffffffffff1673ffffffffffffffffffffffffffffffffffffffff168152602001908152602001600020600082825403925050819055506001600360008473ffffffffffffffffffffffffffffffffffffffff1673ffffffffffffffffffffffffffffffffffffffff16815260200190815260200160002060008282540192505081905550816002600083815260200190815260200160002060006101000a81548173ffffffffffffffffffffffffffffffffffffffff021916908373ffffffffffffffffffffffffffffffffffffffff160217905550808273ffffffffffffffffffffffffffffffffffffffff168473ffffffffffffffffffffffffffffffffffffffff167fddf252ad1be2c89b69c2b068fc378daa952ba7f163c4a11628f55a4df523b3ef60405160405180910390a4611b8b8383836001612233565b505050565b611b98611740565b73ffffffffffffffffffffffffffffffffffffffff16611bb6611222565b73ffffffffffffffffffffffffffffffffffffffff1614611c0c576040517f08c379a0000000000000000000000000000000000000000000000000000000008152600401611c0390613a71565b60405180910390fd5b565b600081600001549050919050565b60008183611c2a9190613c84565b905092915050565b60008183611c409190613cda565b905092915050565b611c62828260405180602001604052806000815250612239565b5050565b6001816000016000828254019250508190555050565b60006002600083815260200190815260200160002060009054906101000a900473ffffffffffffffffffffffffffffffffffffffff169050919050565b6000600660009054906101000a900473ffffffffffffffffffffffffffffffffffffffff16905081600660006101000a81548173ffffffffffffffffffffffffffffffffffffffff021916908373ffffffffffffffffffffffffffffffffffffffff1602179055508173ffffffffffffffffffffffffffffffffffffffff168173ffffffffffffffffffffffffffffffffffffffff167f8be0079c531659141344cd1fd0a4f28419497f9722a3daafe3b4186f6b6457e060405160405180910390a35050565b8173ffffffffffffffffffffffffffffffffffffffff168373ffffffffffffffffffffffffffffffffffffffff161415611dee576040517f08c379a0000000000000000000000000000000000000000000000000000000008152600401611de5906139b1565b60405180910390fd5b80600560008573ffffffffffffffffffffffffffffffffffffffff1673ffffffffffffffffffffffffffffffffffffffff16815260200190815260200160002060008473ffffffffffffffffffffffffffffffffffffffff1673ffffffffffffffffffffffffffffffffffffffff16815260200190815260200160002060006101000a81548160ff0219169083151502179055508173ffffffffffffffffffffffffffffffffffffffff168373ffffffffffffffffffffffffffffffffffffffff167f17307eab39ab6107e8899845ad3d59bd9653f200f220920489ca2b5937696c3183604051611edf9190613894565b60405180910390a3505050565b611ef7848484611896565b611f0384848484612294565b611f42576040517f08c379a0000000000000000000000000000000000000000000000000000000008152600401611f3990613911565b60405180910390fd5b50505050565b60008073ffffffffffffffffffffffffffffffffffffffff16611f6a83611c7c565b73ffffffffffffffffffffffffffffffffffffffff1614159050919050565b6060600d8054611f9890613e1e565b80601f0160208091040260200160405190810160405280929190818152602001828054611fc490613e1e565b80156120115780601f10611fe657610100808354040283529160200191612011565b820191906000526020600020905b815481529060010190602001808311611ff457829003601f168201915b5050505050905090565b60606000600161202a8461242b565b01905060008167ffffffffffffffff81111561206f577f4e487b7100000000000000000000000000000000000000000000000000000000600052604160045260246000fd5b6040519080825280601f01601f1916602001820160405280156120a15781602001600182028036833780820191505090505b509050600082602001820190505b600115612134578080600190039150507f3031323334353637383961626364656600000000000000000000000000000000600a86061a8153600a858161211e577f4e487b7100000000000000000000000000000000000000000000000000000000600052601260045260246000fd5b049450600085141561212f57612134565b6120af565b819350505050919050565b60007f80ac58cd000000000000000000000000000000000000000000000000000000007bffffffffffffffffffffffffffffffffffffffffffffffffffffffff1916827bffffffffffffffffffffffffffffffffffffffffffffffffffffffff1916148061220a57507f5b5e139f000000000000000000000000000000000000000000000000000000007bffffffffffffffffffffffffffffffffffffffffffffffffffffffff1916827bffffffffffffffffffffffffffffffffffffffffffffffffffffffff1916145b8061221a575061221982612662565b5b9050919050565b61222d848484846126cc565b50505050565b50505050565b612243838361282c565b6122506000848484612294565b61228f576040517f08c379a000000000000000000000000000000000000000000000000000000000815260040161228690613911565b60405180910390fd5b505050565b60006122b58473ffffffffffffffffffffffffffffffffffffffff16612a4a565b1561241e578373ffffffffffffffffffffffffffffffffffffffff1663150b7a026122de611740565b8786866040518563ffffffff1660e01b81526004016123009493929190613826565b602060405180830381600087803b15801561231a57600080fd5b505af192505050801561234b57506040513d601f19601f8201168201806040525081019061234891906132b7565b60015b6123ce573d806000811461237b576040519150601f19603f3d011682016040523d82523d6000602084013e612380565b606091505b506000815114156123c6576040517f08c379a00000000000000000000000000000000000000000000000000000000081526004016123bd90613911565b60405180910390fd5b805181602001fd5b63150b7a0260e01b7bffffffffffffffffffffffffffffffffffffffffffffffffffffffff1916817bffffffffffffffffffffffffffffffffffffffffffffffffffffffff191614915050612423565b600190505b949350505050565b600080600090507a184f03e93ff9f4daa797ed6e38ed64bf6a1f01000000000000000083106124af577a184f03e93ff9f4daa797ed6e38ed64bf6a1f01000000000000000083816124a5577f4e487b7100000000000000000000000000000000000000000000000000000000600052601260045260246000fd5b0492506040810190505b6d04ee2d6d415b85acef81000000008310612512576d04ee2d6d415b85acef81000000008381612508577f4e487b7100000000000000000000000000000000000000000000000000000000600052601260045260246000fd5b0492506020810190505b662386f26fc10000831061256757662386f26fc10000838161255d577f4e487b7100000000000000000000000000000000000000000000000000000000600052601260045260246000fd5b0492506010810190505b6305f5e10083106125b6576305f5e10083816125ac577f4e487b7100000000000000000000000000000000000000000000000000000000600052601260045260246000fd5b0492506008810190505b61271083106126015761271083816125f7577f4e487b7100000000000000000000000000000000000000000000000000000000600052601260045260246000fd5b0492506004810190505b6064831061264a5760648381612640577f4e487b7100000000000000000000000000000000000000000000000000000000600052601260045260246000fd5b0492506002810190505b600a8310612659576001810190505b80915050919050565b60007f01ffc9a7000000000000000000000000000000000000000000000000000000007bffffffffffffffffffffffffffffffffffffffffffffffffffffffff1916827bffffffffffffffffffffffffffffffffffffffffffffffffffffffff1916149050919050565b6126d884848484612a6d565b600181111561271c576040517f08c379a000000000000000000000000000000000000000000000000000000000815260040161271390613b31565b60405180910390fd5b6000829050600073ffffffffffffffffffffffffffffffffffffffff168573ffffffffffffffffffffffffffffffffffffffff1614156127645761275f81612b93565b6127a3565b8373ffffffffffffffffffffffffffffffffffffffff168573ffffffffffffffffffffffffffffffffffffffff16146127a2576127a18582612bdc565b5b5b600073ffffffffffffffffffffffffffffffffffffffff168473ffffffffffffffffffffffffffffffffffffffff1614156127e6576127e181612d49565b612825565b8473ffffffffffffffffffffffffffffffffffffffff168473ffffffffffffffffffffffffffffffffffffffff1614612824576128238482612e8c565b5b5b5050505050565b600073ffffffffffffffffffffffffffffffffffffffff168273ffffffffffffffffffffffffffffffffffffffff16141561289c576040517f08c379a000000000000000000000000000000000000000000000000000000000815260040161289390613a51565b60405180910390fd5b6128a581611f48565b156128e5576040517f08c379a00000000000000000000000000000000000000000000000000000000081526004016128dc90613971565b60405180910390fd5b6128f3600083836001612221565b6128fc81611f48565b1561293c576040517f08c379a000000000000000000000000000000000000000000000000000000000815260040161293390613971565b60405180910390fd5b6001600360008473ffffffffffffffffffffffffffffffffffffffff1673ffffffffffffffffffffffffffffffffffffffff16815260200190815260200160002060008282540192505081905550816002600083815260200190815260200160002060006101000a81548173ffffffffffffffffffffffffffffffffffffffff021916908373ffffffffffffffffffffffffffffffffffffffff160217905550808273ffffffffffffffffffffffffffffffffffffffff16600073ffffffffffffffffffffffffffffffffffffffff167fddf252ad1be2c89b69c2b068fc378daa952ba7f163c4a11628f55a4df523b3ef60405160405180910390a4612a46600083836001612233565b5050565b6000808273ffffffffffffffffffffffffffffffffffffffff163b119050919050565b6001811115612b8d57600073ffffffffffffffffffffffffffffffffffffffff168473ffffffffffffffffffffffffffffffffffffffff1614612b015780600360008673ffffffffffffffffffffffffffffffffffffffff1673ffffffffffffffffffffffffffffffffffffffff1681526020019081526020016000206000828254612af99190613d34565b925050819055505b600073ffffffffffffffffffffffffffffffffffffffff168373ffffffffffffffffffffffffffffffffffffffff1614612b8c5780600360008573ffffffffffffffffffffffffffffffffffffffff1673ffffffffffffffffffffffffffffffffffffffff1681526020019081526020016000206000828254612b849190613c84565b925050819055505b5b50505050565b600980549050600a600083815260200190815260200160002081905550600981908060018154018082558091505060019003906000526020600020016000909190919091505550565b60006001612be984611144565b612bf39190613d34565b9050600060086000848152602001908152602001600020549050818114612cd8576000600760008673ffffffffffffffffffffffffffffffffffffffff1673ffffffffffffffffffffffffffffffffffffffff168152602001908152602001600020600084815260200190815260200160002054905080600760008773ffffffffffffffffffffffffffffffffffffffff1673ffffffffffffffffffffffffffffffffffffffff168152602001908152602001600020600084815260200190815260200160002081905550816008600083815260200190815260200160002081905550505b6008600084815260200190815260200160002060009055600760008573ffffffffffffffffffffffffffffffffffffffff1673ffffffffffffffffffffffffffffffffffffffff16815260200190815260200160002060008381526020019081526020016000206000905550505050565b60006001600980549050612d5d9190613d34565b90506000600a6000848152602001908152602001600020549050600060098381548110612db3577f4e487b7100000000000000000000000000000000000000000000000000000000600052603260045260246000fd5b906000526020600020015490508060098381548110612dfb577f4e487b7100000000000000000000000000000000000000000000000000000000600052603260045260246000fd5b906000526020600020018190555081600a600083815260200190815260200160002081905550600a6000858152602001908152602001600020600090556009805480612e70577f4e487b7100000000000000000000000000000000000000000000000000000000600052603160045260246000fd5b6001900381819060005260206000200160009055905550505050565b6000612e9783611144565b905081600760008573ffffffffffffffffffffffffffffffffffffffff1673ffffffffffffffffffffffffffffffffffffffff168152602001908152602001600020600083815260200190815260200160002081905550806008600084815260200190815260200160002081905550505050565b828054612f1790613e1e565b90600052602060002090601f016020900481019282612f395760008555612f80565b82601f10612f5257805160ff1916838001178555612f80565b82800160010185558215612f80579182015b82811115612f7f578251825591602001919060010190612f64565b5b509050612f8d9190612f91565b5090565b5b80821115612faa576000816000905550600101612f92565b5090565b6000612fc1612fbc84613b91565b613b6c565b905082815260208101848484011115612fd957600080fd5b612fe4848285613ddc565b509392505050565b6000612fff612ffa84613bc2565b613b6c565b90508281526020810184848401111561301757600080fd5b613022848285613ddc565b509392505050565b600081359050613039816144b0565b92915050565b60008135905061304e816144c7565b92915050565b600081359050613063816144de565b92915050565b600081519050613078816144de565b92915050565b600082601f83011261308f57600080fd5b813561309f848260208601612fae565b91505092915050565b600082601f8301126130b957600080fd5b81356130c9848260208601612fec565b91505092915050565b6000813590506130e1816144f5565b92915050565b6000602082840312156130f957600080fd5b60006131078482850161302a565b91505092915050565b6000806040838503121561312357600080fd5b60006131318582860161302a565b92505060206131428582860161302a565b9150509250929050565b60008060006060848603121561316157600080fd5b600061316f8682870161302a565b93505060206131808682870161302a565b9250506040613191868287016130d2565b9150509250925092565b600080600080608085870312156131b157600080fd5b60006131bf8782880161302a565b94505060206131d08782880161302a565b93505060406131e1878288016130d2565b925050606085013567ffffffffffffffff8111156131fe57600080fd5b61320a8782880161307e565b91505092959194509250565b6000806040838503121561322957600080fd5b60006132378582860161302a565b92505060206132488582860161303f565b9150509250929050565b6000806040838503121561326557600080fd5b60006132738582860161302a565b9250506020613284858286016130d2565b9150509250929050565b6000602082840312156132a057600080fd5b60006132ae84828501613054565b91505092915050565b6000602082840312156132c957600080fd5b60006132d784828501613069565b91505092915050565b6000602082840312156132f257600080fd5b600082013567ffffffffffffffff81111561330c57600080fd5b613318848285016130a8565b91505092915050565b60006020828403121561333357600080fd5b6000613341848285016130d2565b91505092915050565b600061335683836137bc565b60208301905092915050565b61336b81613d68565b82525050565b600061337c82613c18565b6133868185613c46565b935061339183613bf3565b8060005b838110156133c25781516133a9888261334a565b97506133b483613c39565b925050600181019050613395565b5085935050505092915050565b6133d881613d7a565b82525050565b60006133e982613c23565b6133f38185613c57565b9350613403818560208601613deb565b61340c81613f57565b840191505092915050565b600061342282613c2e565b61342c8185613c68565b935061343c818560208601613deb565b61344581613f57565b840191505092915050565b600061345b82613c2e565b6134658185613c79565b9350613475818560208601613deb565b80840191505092915050565b6000815461348e81613e1e565b6134988186613c79565b945060018216600081146134b357600181146134c4576134f7565b60ff198316865281860193506134f7565b6134cd85613c03565b60005b838110156134ef578154818901526001820191506020810190506134d0565b838801955050505b50505092915050565b600061350d602d83613c68565b915061351882613f68565b604082019050919050565b6000613530602b83613c68565b915061353b82613fb7565b604082019050919050565b6000613553603283613c68565b915061355e82614006565b604082019050919050565b6000613576602683613c68565b915061358182614055565b604082019050919050565b6000613599602583613c68565b91506135a4826140a4565b604082019050919050565b60006135bc601c83613c68565b91506135c7826140f3565b602082019050919050565b60006135df602483613c68565b91506135ea8261411c565b604082019050919050565b6000613602601983613c68565b915061360d8261416b565b602082019050919050565b6000613625602283613c68565b915061363082614194565b604082019050919050565b6000613648601583613c68565b9150613653826141e3565b602082019050919050565b600061366b602583613c68565b91506136768261420c565b604082019050919050565b600061368e602983613c68565b91506136998261425b565b604082019050919050565b60006136b1602083613c68565b91506136bc826142aa565b602082019050919050565b60006136d4602083613c68565b91506136df826142d3565b602082019050919050565b60006136f7602f83613c68565b9150613702826142fc565b604082019050919050565b600061371a601883613c68565b91506137258261434b565b602082019050919050565b600061373d602183613c68565b915061374882614374565b604082019050919050565b6000613760603d83613c68565b915061376b826143c3565b604082019050919050565b6000613783602c83613c68565b915061378e82614412565b604082019050919050565b60006137a6603583613c68565b91506137b182614461565b604082019050919050565b6137c581613dd2565b82525050565b6137d481613dd2565b82525050565b60006137e68286613450565b91506137f28285613450565b91506137fe8284613481565b9150819050949350505050565b60006020820190506138206000830184613362565b92915050565b600060808201905061383b6000830187613362565b6138486020830186613362565b61385560408301856137cb565b818103606083015261386781846133de565b905095945050505050565b6000602082019050818103600083015261388c8184613371565b905092915050565b60006020820190506138a960008301846133cf565b92915050565b600060208201905081810360008301526138c98184613417565b905092915050565b600060208201905081810360008301526138ea81613500565b9050919050565b6000602082019050818103600083015261390a81613523565b9050919050565b6000602082019050818103600083015261392a81613546565b9050919050565b6000602082019050818103600083015261394a81613569565b9050919050565b6000602082019050818103600083015261396a8161358c565b9050919050565b6000602082019050818103600083015261398a816135af565b9050919050565b600060208201905081810360008301526139aa816135d2565b9050919050565b600060208201905081810360008301526139ca816135f5565b9050919050565b600060208201905081810360008301526139ea81613618565b9050919050565b60006020820190508181036000830152613a0a8161363b565b9050919050565b60006020820190508181036000830152613a2a8161365e565b9050919050565b60006020820190508181036000830152613a4a81613681565b9050919050565b60006020820190508181036000830152613a6a816136a4565b9050919050565b60006020820190508181036000830152613a8a816136c7565b9050919050565b60006020820190508181036000830152613aaa816136ea565b9050919050565b60006020820190508181036000830152613aca8161370d565b9050919050565b60006020820190508181036000830152613aea81613730565b9050919050565b60006020820190508181036000830152613b0a81613753565b9050919050565b60006020820190508181036000830152613b2a81613776565b9050919050565b60006020820190508181036000830152613b4a81613799565b9050919050565b6000602082019050613b6660008301846137cb565b92915050565b6000613b76613b87565b9050613b828282613e50565b919050565b6000604051905090565b600067ffffffffffffffff821115613bac57613bab613f28565b5b613bb582613f57565b9050602081019050919050565b600067ffffffffffffffff821115613bdd57613bdc613f28565b5b613be682613f57565b9050602081019050919050565b6000819050602082019050919050565b60008190508160005260206000209050919050565b600081519050919050565b600081519050919050565b600081519050919050565b6000602082019050919050565b600082825260208201905092915050565b600082825260208201905092915050565b600082825260208201905092915050565b600081905092915050565b6000613c8f82613dd2565b9150613c9a83613dd2565b9250827fffffffffffffffffffffffffffffffffffffffffffffffffffffffffffffffff03821115613ccf57613cce613eca565b5b828201905092915050565b6000613ce582613dd2565b9150613cf083613dd2565b9250817fffffffffffffffffffffffffffffffffffffffffffffffffffffffffffffffff0483118215151615613d2957613d28613eca565b5b828202905092915050565b6000613d3f82613dd2565b9150613d4a83613dd2565b925082821015613d5d57613d5c613eca565b5b828203905092915050565b6000613d7382613db2565b9050919050565b60008115159050919050565b60007fffffffff0000000000000000000000000000000000000000000000000000000082169050919050565b600073ffffffffffffffffffffffffffffffffffffffff82169050919050565b6000819050919050565b82818337600083830152505050565b60005b83811015613e09578082015181840152602081019050613dee565b83811115613e18576000848401525b50505050565b60006002820490506001821680613e3657607f821691505b60208210811415613e4a57613e49613ef9565b5b50919050565b613e5982613f57565b810181811067ffffffffffffffff82111715613e7857613e77613f28565b5b80604052505050565b6000613e8c82613dd2565b91507fffffffffffffffffffffffffffffffffffffffffffffffffffffffffffffffff821415613ebf57613ebe613eca565b5b600182019050919050565b7f4e487b7100000000000000000000000000000000000000000000000000000000600052601160045260246000fd5b7f4e487b7100000000000000000000000000000000000000000000000000000000600052602260045260246000fd5b7f4e487b7100000000000000000000000000000000000000000000000000000000600052604160045260246000fd5b6000601f19601f8301169050919050565b7f4552433732313a2063616c6c6572206973206e6f7420746f6b656e206f776e6560008201527f72206f7220617070726f76656400000000000000000000000000000000000000602082015250565b7f455243373231456e756d657261626c653a206f776e657220696e646578206f7560008201527f74206f6620626f756e6473000000000000000000000000000000000000000000602082015250565b7f4552433732313a207472616e7366657220746f206e6f6e20455243373231526560008201527f63656976657220696d706c656d656e7465720000000000000000000000000000602082015250565b7f4f776e61626c653a206e6577206f776e657220697320746865207a65726f206160008201527f6464726573730000000000000000000000000000000000000000000000000000602082015250565b7f4552433732313a207472616e736665722066726f6d20696e636f72726563742060008201527f6f776e6572000000000000000000000000000000000000000000000000000000602082015250565b7f4552433732313a20746f6b656e20616c7265616479206d696e74656400000000600082015250565b7f4552433732313a207472616e7366657220746f20746865207a65726f2061646460008201527f7265737300000000000000000000000000000000000000000000000000000000602082015250565b7f4552433732313a20617070726f766520746f2063616c6c657200000000000000600082015250565b7f4e6f7420656e6f75676820657468657220746f207075726368617365204e465460008201527f732e000000000000000000000000000000000000000000000000000000000000602082015250565b7f4e6f7420656e6f756768204e465473206c656674210000000000000000000000600082015250565b7f43616e6e6f74206d696e7420737065636966696564206e756d626572206f662060008201527f4e4654732e000000000000000000000000000000000000000000000000000000602082015250565b7f4552433732313a2061646472657373207a65726f206973206e6f74206120766160008201527f6c6964206f776e65720000000000000000000000000000000000000000000000602082015250565b7f4552433732313a206d696e7420746f20746865207a65726f2061646472657373600082015250565b7f4f776e61626c653a2063616c6c6572206973206e6f7420746865206f776e6572600082015250565b7f4552433732314d657461646174613a2055524920717565727920666f72206e6f60008201527f6e6578697374656e7420746f6b656e0000000000000000000000000000000000602082015250565b7f4552433732313a20696e76616c696420746f6b656e2049440000000000000000600082015250565b7f4552433732313a20617070726f76616c20746f2063757272656e74206f776e6560008201527f7200000000000000000000000000000000000000000000000000000000000000602082015250565b7f4552433732313a20617070726f76652063616c6c6572206973206e6f7420746f60008201527f6b656e206f776e6572206f7220617070726f76656420666f7220616c6c000000602082015250565b7f455243373231456e756d657261626c653a20676c6f62616c20696e646578206f60008201527f7574206f6620626f756e64730000000000000000000000000000000000000000602082015250565b7f455243373231456e756d657261626c653a20636f6e736563757469766520747260008201527f616e7366657273206e6f7420737570706f727465640000000000000000000000602082015250565b6144b981613d68565b81146144c457600080fd5b50565b6144d081613d7a565b81146144db57600080fd5b50565b6144e781613d86565b81146144f257600080fd5b50565b6144fe81613dd2565b811461450957600080fd5b5056fea264697066735822122042898a4f80bde14bdab52c16d184acc2a2fe6263f523f5a87b405a700798f2da64736f6c63430008030033",
    "linkReferences": {},
    "deployedLinkReferences": {}
}